:020000040000fa
:020000040800f2
:10000000f0ff0120ab50000caf21000c3727000c93
:1000100000000000000000000000000000000000e0
:10002000000000000000000000000000e334000cad
:1000300000000000000000008928000c6f68000c20
:10004000e334000ce334000ce334000ce334000c24
:10005000e334000ce334000ce334000ce334000c14
:10006000e334000ce334000ce334000ce334000c04
:10007000e334000ce334000ce334000ce334000cf4
:10008000e334000ce334000ce334000ce334000ce4
:10009000e334000ce334000ce334000ce334000cd4
:1000a000e334000ce334000ce334000ce334000cc4
:1000b000e334000ce334000ce334000ce334000cb4
:1000c000e334000c00000000e334000c8b24000c2f
:1000d000e334000ce334000ce334000ce334000c94
:1000e000e334000ce334000c074a000c7749000ca1
:1000f0008f46000ce334000ce334000ce334000cb6
:10010000e334000ce334000ce334000ce334000c63
:10011000e334000ce334000ce334000ce334000c53
:10012000e334000ce334000ce334000ce334000c43
:10013000e334000ce334000ce334000ce334000c33
:10014000e334000ce334000ce334000cf10c000c3d
:10015000f10c000cf10c000cf10c000cf10c000c7b
:10016000f10c000cf10c000c3912000c3912000ccf
:100170003912000c3912000c3912000c3912000c23
:100180003912000ccd55000ccd55000ccd55000c8e
:10019000cd55000ccd55000ccd55000ccd55000ca7
:1001a000e334000ce334000ce334000ce334000cc3
:1001b000e334000ce334000ce334000ce334000cb3
:1001c000e334000ce334000ce334000ce334000ca3
:1001d000e334000ce334000ce334000ce334000c93
:1001e000e334000ce334000ce334000ce334000c83
:1001f000e334000ce334000ce334000ce334000c73
:10020000e334000ce334000ce334000ce334000c62
:10021000e334000ce334000ce334000ce334000c52
:10022000e334000ce334000ce334000ce334000c42
:10023000e334000ce334000ce334000ce334000c32
:10024000e334000ce334000ce334000ce334000c22
:10025000e334000ce334000ce334000ce334000c12
:0c026000e334000ce334000ce334000c29
:020000040000fa
:020000040a00f0
:04000c000200fdfff2
:020000040000fa
:020000040a00f0
:04080000f9f8ffff05
:020000040000fa
:020000040a00f0
:04081000ffffffffe8
:020000040000fa
:020000040a00f0
:04081400ffffffffe4
:020000040000fa
:020000040a00f0
:04081800ffffffffe0
:020000040000fa
:020000040a00f0
:04081c00feffffffdd
:020000040000fa
:020000040a00f0
:0408200001000000d3
:020000040000fa
:020000040a00f0
:0408300013000000b1
:020000040000fa
:020000040a00f0
:04083400ffffffffc4
:020000040000fa
:020000040a00f0
:0408380000000000bc
:020000040000fa
:020000040a00f0
:040848002e0000007e
:020000040000fa
:020000040a00f0
:04084c00ffffffffac
:020000040000fa
:020000040a00f0
:0408500000000000a4
:020000040000fa
:020000040a00f0
:040860002f00000065
:020000040000fa
:020000040a00f0
:040864000000005c34
:020000040000fa
:020000040a00f0
:040868000000005c30
:020000040000fa
:020000040a00f0
:04086c000000005c2c
:020000040000fa
:020000040a00f0
:040870000000005c28
:020000040000fa
:020000040a00f0
:04087400000001a5da
:020000040000fa
:020000040a00f0
:04087800ffff03a5d6
:020000040000fa
:020000040a00f0
:04087c000000000078
:020000040000fa
:020000040a00f0
:040880000000000074
:020000040000fa
:020000040a00f0
:040884000000000070
:020000040000fa
:020000040a00f0
:04088800000000006c
:020000040000fa
:020000040a00f0
:040890000000000064
:020000040000fa
:020000040a00f0
:040894000000000060
:020000040000fa
:020000040a00f0
:04089800000000005c
:020000040000fa
:020000040a00f0
:04200c000100feffd2
:020000040000fa
:020000040a00f0
:04280000f9f8ffffe5
:020000040000fa
:020000040a00f0
:04281000ffffffffc8
:020000040000fa
:020000040a00f0
:04281400ffffffffc4
:020000040000fa
:020000040a00f0
:04281800ffffffffc0
:020000040000fa
:020000040a00f0
:04281c00feffffffbd
:020000040000fa
:020000040a00f0
:0428200001000000b3
:020000040000fa
:020000040a00f0
:042830001300000091
:020000040000fa
:020000040a00f0
:04283400ffffffffa4
:020000040000fa
:020000040a00f0
:04283800000000009c
:020000040000fa
:020000040a00f0
:042848002e0000005e
:020000040000fa
:020000040a00f0
:04284c00ffffffff8c
:020000040000fa
:020000040a00f0
:042850000000000084
:020000040000fa
:020000040a00f0
:042860002f00000045
:020000040000fa
:020000040a00f0
:042864000000005c14
:020000040000fa
:020000040a00f0
:042868000000005c10
:020000040000fa
:020000040a00f0
:04286c000000005c0c
:020000040000fa
:020000040a00f0
:042870000000005c08
:020000040000fa
:020000040a00f0
:04287400000001a5ba
:020000040000fa
:020000040a00f0
:04287800ffff03a5b6
:020000040000fa
:020000040a00f0
:04287c000000000058
:020000040000fa
:020000040a00f0
:042880000000000054
:020000040000fa
:020000040a00f0
:042884000000000050
:020000040000fa
:020000040a00f0
:04288800000000004c
:020000040000fa
:020000040a00f0
:042890000000000044
:020000040000fa
:020000040a00f0
:042894000000000040
:020000040000fa
:020000040a00f0
:04289800000000003c
:020000040000fa
:020000040c00ee
:10000000f8b5c046f8bc08bc9e4670477562000c47
:10001000f8b5c046f8bc08bc9e4670475162000c5b
:020000040000fa
:020000040c00ee
:08002000ac0600000100000025
:020000040000fa
:020000040c00ee
:10002800dc5500201c0000000000000024560020c1
:100038000c00000000000000305200207400000096
:1000480000000000fc4c002004000000000000003c
:10005800a452002060000000000000007854002036
:10006800900000000000000070510020c000000057
:1000780000000000385500202c000000000000009f
:10008800a756002001000000000000006455002071
:100098002c0000000000000008550020300000007f
:1000a80000000000905500204c00000000000000f7
:1000b800505000202001000000000000104f0020d8
:1000c80010000000000000003c560020080000005e
:1000d800000000007454002004000000000000002c
:1000e800803e00208806000000000000ac5600207a
:1000f8000100000000000000305600200c00000045
:1001080000000000204f0020300100000000000027
:100118007c560020040000000000000080560020eb
:100128000400000000000000445600200800000001
:10013800000000004c5600200800000000000000ed
:10014800a856002002000000000000000000002067
:10015800803e0000000000008456002004000000db
:1001680000000000a456002003000000000000006a
:10017800aa5600200200000000000000545600208b
:100188000800000000000000f85500201c000000d6
:10019800000000005c56002008000000000000007d
:1001a80014560020100000000000000064560020d3
:1001b8001000000000000000ad5600200100000003
:1001c8000000000088560020040000000000000025
:1001d8005453002048000000000000008c56002006
:1001e80004000000000000009c5300209000000064
:1001f80000000000905600200400000000000000ed
:100208002c54002048000000000000001049002085
:10021800ec03000000000000b056002010040000ad
:1002280002000000945600200400000000000000b6
:10023800045300205000000000000000c05a0020b5
:100248006c00000001000000cc5a0020c85a0020b1
:10025800cc5a0020000000002500000010450020b6
:100268000004000000000000000000000000000082
:100278000000000000000000000000000000000076
:1002880000000000a372000c000000000000000045
:1002980000000000000000003156000c00000000c3
:1002a8000000000000000000000000000000000046
:1002b80000000000084500200804000000000000bd
:1002c8008c5b0020200000000100000001000000fd
:1002d8000300000000000000000000000000000013
:1002e8000000000000000000745600207456002032
:1002f80008000000000000009856002008000000d8
:1003080000000000004d0020100200000000000066
:100318002c5b0020600000000100000001000000cc
:1003280003000000000000000000000000000000c2
:1003380000000000000000009f5a000c00000000b0
:1003480000000000000000003572000c9356000cfd
:100358000000000000000000000000000000000095
:100368000000000000000000000000000000000085
:10037800000000000000000000000000a05600205f
:100388000400000000000000000000000000000061
:020000040000fa
:020000040c00ee
:100398000023f0b506001500b1b007910393079943
:1003a8000b78002b00d10be101235b420c9310abbf
:1003b80000240e9380230b940d940f930b5d0bb1c7
:1003c800252b29d134b12200300006f05ef9079bb5
:1003d8001b190793079b1a78252a00d0e5e040f2fd
:1003e800020c01211027013304930793079803781f
:1003f8002b2b1ad025d8202b1ad0232b1dd02a2bf3
:1004080028d006f01ef80d90079b1a78303a092a72
:1004180031d801330793f7e70134cfe70b9b0593f6
:100428000b4301300b930790e0e704230b9a0fe08e
:100438000b9b0593059a08230ae00b9b05933b4306
:10044800efe72d2bead0302bd9d162460b9b0593d1
:100458001343e6e72b6801301a1d1b6807902a60d2
:100468000d93002b07da0b9a5b420592012205993e
:100478000d934a400b920b9bda0702d50222934355
:100488000b93079b1a782e2a0ed10022581c0c9227
:1004980007905a782a2a28d1023307932b681a1d05
:1004a8001b682a6005930c9307a806f08ff9079b31
:1004b8000700187806f082fe692800d183e035dc51
:1004c800632800d1dae01bdc252800d1e7e06128a9
:1004d80059d0049b01220793002352420c920b939c
:1004e8000d93764900930232e4e005f0aaff0c90e0
:1004f800079b1a78303a092ad6d801330793f7e7c9
:10050800642860d06728e4dc2a00390008a806f0cf
:10051800b8fa002800d1ade0079b0ba95a1c079236
:100528001b7808aa300006f0b6fe3de0702800d11e
:100538007be016dc6e2800d195e06f28c9d12b002e
:100548000022390008a803f09bfd002800d191e0a3
:10055800079b08aa01330ba93000079306f099fe00
:1005680022e0752840d078284ed07328b1d1802f4a
:1005780000d07fe0079b2a6801330793131d2b6087
:100588001268002386e02a00390008a806f079fae4
:10059800002800d16ee0079b0ba95a1c07921b7814
:1005a80008aa300006f077fe2418039b1c19a34202
:1005b80000dc81e04f22424b1a6001235b42039327
:1005c800039831b0f0bd2b000122390008a803f0d0
:1005d80057fd00284ed0079b08aa01330ba930000d
:1005e800079303f0b1fedfe72b000022390008a8cb
:1005f80003f046fdf0b3079b08aa01330ba93000ae
:10060800079306f046fecfe72b000022390008a822
:1006180003f036fd70b3079b5a1c07921b7808aa93
:100628000ba9300002f002fbbee72b000022f021ec
:1006380008a803f025fde8b1079b099a0133079341
:10064800089b13436bb91d4f1637380006f026fc7c
:10065800390002000b9b00930d9b300004f0e4fc72
:10066800a2e77823dbe7039b39001a1908a82b00b7
:1006780004f00fff079b0133079396e7802ff9d10a
:10068800079b013307932b681a1d1b682a6008aa69
:10069800137001230ba9300005f006fc84e7802fb6
:1006a800e8d10122079b0549013307930b9b04936b
:1006b80000930d9b1c31d0e7039470e6706d000c1d
:0406c8009c5600201c
:020000040000fa
:020000040c00ee
:1006cc00f0b585b000930393009b02900c001600cc
:1006dc00150001900f00002b00d0c9e08a424ad9c6
:1006ec00100005f025ff48b12023019f1b1adf40a5
:1006fc00019b84408340854027430193aab22b0c75
:10070c00b7fbf3f1160094461a004a434e43bf1a46
:10071c00019a3f04140c27430a00be4207d97f19e3
:10072c00013abd4203d8be4201d98a1e7f19be1bb5
:10073c00b6fbf3f14b436446f61a6b464c439b886d
:10074c0036041e430f00b44207d97619013fb54257
:10075c0003d8b44201d98f1e76191204341b3a43c4
:10076c000a9b23b1c4401c6000230a994b60100003
:10077c00009905b0f0bd02b9ffde100005f0d8feff
:10078c00b8bb0123a41b00932b0cb4fbf3f21f008a
:10079c0011005743aeb27143e41b019f24043f0c7c
:1007ac003c439446a1420ad9012764197f42bc44b8
:1007bc00a54204d8a14202d9023a94466419641a9b
:1007cc00b4fbf3f77b43e41a6b467e439b8824040b
:1007dc001c433900a64207d964190139a54203d834
:1007ec00a64201d9b91e641963461a04a41b0a4314
:1007fc00b6e7202223000199121ad3408440d1403d
:10080c00019a8540824021438c46290cb3fbf1f4bc
:10081c0001920a00624326009b1a6246afb27e43e5
:10082c00120c1b04134322009e4207d95b19013a98
:10083c009d4203d89e4201d9a21e5b199b1bb3fba0
:10084c00f1f671435b1a614677438cb21b041c436f
:10085c003100a74207d964190139a54203d8a74230
:10086c0001d9b11e641912040a43e41b00928be7f0
:10087c00009b8b420ad90a9b002b00d1abe0029a59
:10088c0059601a60002300931a0070e7039805f072
:10089c004ffed8b9039ba34203d3029b02009e4296
:1008ac000ad8029b01229e1b039b0196e41a029b11
:1008bc00b342ad416d42671b0a9b0093002b00d1e4
:1008cc0055e7019982c30023009350e720231b1a9c
:1008dc0001933300019a039fd34087401f432300a9
:1008ec000199d340029a8440ca4022439446029a0a
:1008fc00390c8240b3fbf1f402920a008640624349
:10090c00009626009b1a6246bdb26e43120c1b0465
:10091c00134322009e4207d9db19013a9f4203d8a8
:10092c009e4201d9a21edb199e1bb6fbf1f4634655
:10093c0061436543761a360499b20e432300b542df
:10094c0007d9f619013bb74203d8b54201d9a31e0a
:10095c00f61912041a436b461c88009b711b8c46bb
:10096c00190c230096b2150c6c4373434d43714321
:10097c001e0c091971188c4202d9802464022d199d
:10098c000c0c9bb209046519c918ac4503d30bd1e7
:10099c00029b8b4208d2009b013ace1ab14289418c
:1009ac004942cf193100ed1b0a9b0093002b00d15b
:1009bc00dde6029b019c591a63465d1b029b8b4230
:1009cc009b415b42ed1a2b00c140a340c54019432b
:0a09dc000a9b22c377e70a9b55e748
:020000040000fa
:020000040c00ee
:1009e600f0b5de4657464e464546e0b587b00400ac
:1009f600020040f28863434343f68061c2f200017d
:100a06008c46634440f2866c63441f78002f00d006
:100a16003ce140f28861414343f68063c2f2000341
:100a26009c4661448d6c0b6c496c0139491b99429b
:100a360000d323e140f28861614340f274600e18ee
:100a460043f68060c2f200008446664440f2886045
:100a56004243624440f21a6940f2106b40f2ff0ac8
:100a660040f2866c944460460390013b2b40d800cc
:100a7600c01ac3001b1a5b01d06b84466344484608
:100a8600185c804600209446c2b2904503d0325c82
:100a9600002a00d011e101300328f5d140f21b6293
:100aa6009a5c1e1d12b940f204629e5840f21c6206
:100ab6009a5c002a67d040f20438984440f2886273
:100ac600624343f68060c2f2000084466244013508
:100ad6009564002c00d0dbe040f214629a58d207ed
:100ae60056d58922d2051020906140f21a629d5c8b
:100af600023a9b5a994643f68063c2f200036e326d
:100b060001209854022d10d843f68063c2f20003e8
:100b1600eb1840f2746c634401221a708922d205e4
:100b260040f2141380204002d05040f288636343a1
:100b360043f68062c2f200029446634440f2856c3a
:100b460063441b78ab4228d1002e52d04346ebb308
:100b560040f28863634343f68062c2f20002944621
:100b6600634440f2786c6344186805ab01934b46c6
:100b7600009343464a46310000f09dfe059b013333
:100b86004dd001277ae040f208629a58904695e7e0
:100b96008922d20510205061a7e740f2886262439d
:100ba60043f68063c2f200039c46624440f28563ca
:100bb600d3181d70ab005b199b005918614440f2b5
:100bc600786c6244106805f033ffbde740f2886335
:100bd600634343f68062c2f200029446634440f2e5
:100be600786c6344186805ab4a46310006f02efa65
:100bf600c4e74346002bc1d040f28863634343f603
:100c06008062c2f200029446634440f2786c634408
:100c1600186805ab4a46414606f07df9aee740f254
:100c26008863634343f68062c2f2000294466344db
:100c360040f2866c634400221a709cb9022d11d8ca
:100c460043f68063c2f200039c46654440f2746c2e
:100c5600654400232b708922d2051933ff33802186
:100c66004902d15040f288635c4343f68063c2f286
:100c760000039c466444a36c013ba364380007b0a0
:100c86003cbc90469946a246ab46f0bd0027f5e728
:100c960040f21a629d5c023a9b5a994640f288637a
:100ca600634343f68062c2f200029446634440f214
:100cb600866c634401221a7037e7624658465546e9
:100cc6001d54936c5d1c9564d36c0133d364039bf4
:100cd6001b789c46002bd1d1136c506c0138401bfd
:0a0ce600984200d2c1e66746c8e755
:020000040000fa
:020000040c00ee
:100cf00010b54af20003c4f280439b7d43b345f232
:100d00003853c2f200039c6a4af20003c4f28043e3
:100d10005b8b9b071dd545f23853c2f2000320229e
:100d2000ff2199540132fd39995445f23853c2f2ea
:100d3000000320229b5c5bb2013300d1e5e045f269
:100d40003853c2f2000320229b5c062b00d108e13d
:100d500010bd4af20003c4f280435b8bdb070ad567
:100d600045f23853c2f200032022ff219954013288
:100d7000fd399954d9e74af20003c4f280435b8bf2
:100d80005b070ad545f23853c2f200032022ff2147
:100d900099540132fe399954c7e745f23853c2f2eb
:100da000000320229b5c5bb2032b78d0042b1bd06a
:100db000022bbad145f23853c2f200031b694bb182
:100dc00045f23853c2f20003988880b2002104f043
:100dd000a7f9aae745f23853c2f20003988880b217
:100de000012104f09df9a0e745f23853c2f2000357
:100df0009a691b69934218d045f23853c2f2000336
:100e00009b68995c4af20003c4f280439962511cca
:100e10004af20002c4f28042d369002bfcd145f2b1
:100e20003853c2f2000399617fe745f23853c2f2aa
:100e300000035b69dbb145f23853c2f200039b88c3
:100e40005b00012213434af20002c4f28042536263
:100e50004af20002c4f28042d369002bfcd145f271
:100e60003853c2f200032022032199545de74af26d
:100e70000003c4f280435968c02292020a435a60b8
:100e80004af20002c4f28042d369002bfcd145f241
:100e90003853c2f2000320220621995445e745f257
:100ea0003853c2f20003d9695b69013b8b4214d00d
:100eb0004af20002c4f28042d369002bfcd14af20c
:100ec0000003c4f28043986a45f23853c2f200032b
:100ed000da6850540131d96127e74af20003c4f2bd
:100ee00080435868e022d20202435a604af200026c
:100ef000c4f28042d369002bfcd145f23853c2f2d0
:100f00000003202206209854d2e745f23853c2f25b
:100f10000003002199544af20003c4f28043596847
:100f2000c02292020a435a604af20002c4f280428e
:100f3000d369002bfcd14af20003c4f280439b2208
:100f40001a7645f23853c2f200035b6a002b00d1d7
:100f5000fee645f23853c2f200035b6a2000984770
:100f6000f6e645f23853c2f20003002220215a541b
:100f700001315a544af20003c4f280439b321a767c
:100f80004af20002c4f280420f31538b0b40102b07
:100f9000fbd145f23853c2f200035b6a002b00d14b
:100fa000d6e645f23853c2f200035b6a2000984748
:020fb000cee68b
:020000040000fa
:020000040c00ee
:020fb200704786
:020000040000fa
:020000040c00ee
:100fb400f0b5de4657464e464546e0b5bff35f8f73
:100fc40062b64ef20013cef2000340f2103299588a
:100fd400ff25a943c0242143995080214902196067
:100fe40099589248844601404cf20007394399507d
:100ff4008020800218609e588d480640c021090454
:101004000e439e508026f6021e6040f21c3846466f
:101014009e593602360ac0273f063e4342469e503a
:10102400802636061e6040f2203846469e59360217
:10103400360a3e4342469e5040f2080a56465e60d7
:1010440040f2283846469e5906400e4342469e507a
:1010540040f200465e609e583602360a3e439e5079
:1010640040f600094e465e6040f22c3846469e59d2
:10107400ae43264342469e5041f2000846465e6017
:1010840040f2403b5e469e593602360a3e435a467b
:101094009e5056469e6040f244369a59aa432243d3
:1010a4009a5140f2100a52469a609a5967463a4059
:1010b4004cf200073a439a5140f2200a57469f6087
:1010c4009f593a0002400a439a5140f2400a574657
:1010d4009f609f593f023f0a3a00c0273f063a43a8
:1010e4009a5180269e6040f248369f593a00aa439e
:1010f40022439a5140f2001a57469f609f593a0082
:1011040067463a404cf200073a439a5140f2002aab
:1011140057469f609f593a0002400a439a5140f251
:1011240000479f609f593f023f0a3a00c0273f068d
:101134003a439a514f469f6004369f593a00aa4356
:1011440022439a5147469f609f593a0067463a4066
:101154004cf200073a439a5142f2000847469f6016
:101164009f593a0002400a439a5144f20008474604
:101174009f609f593f023f0a3a00c0273f063a4307
:101184009a5148f200069e6040f250369f593a0048
:10119400aa4322439a51802252029a609f593a00ec
:1011a40067463a404cf200073a439a518022920231
:1011b4009a609f593a0002400a439a518022d2020f
:1011c4009a609a591202120ac0273f063a439a516a
:1011d400802636039e6040f254369a59aa4314433b
:1011e4009c51802464039c609c59624614404cf2d8
:1011f400000727439f518024a4039c609c592040ee
:10120400014399518021c903996099590902090a36
:10121400c02212060a439a51802212049a603cbcee
:1012240090469946a246ab46f0bdc046ff00ffff7c
:04123400ffff00ffb9
:020000040000fa
:020000040c00ee
:1012380070b545f26453c2f20003586a4cf20003d9
:10124800c4f280439b7d002b00d199e04cf2000250
:10125800c4f28042546807210c4045f26453c2f23c
:10126800000359699d699e68137e5b0700d49ee060
:101278004cf20003c4f280439a6a45f26453c2f206
:101288000003db688b4200d891e0002c00d078e0a6
:1012980045f26453c2f200035b685a5401314cf2c0
:1012a8000003c4f280431b7edb072ad54cf20003ff
:1012b800c4f2804301221a7545f26453c2f2000356
:1012c8009b68ab4200d897e045f26453c2f2000332
:1012d8001b685a5d4cf20003c4f280439a620135e0
:1012e80045f26453c2f200031b6913b9b54200d139
:1012f800afe045f26453c2f20003db688b4200d1d1
:10130800aee045f26453c2f2000359619d614cf2ac
:101318000003c4f280431b7e9b0725d545f2a763d3
:10132800c2f200031b785bb345f26453c2f20003b8
:10133800db688b421ed145f26453c2f200030021e0
:1013480019774cf20002c4f280420724147545f262
:10135800a762c2f2000211701b6a8bb145f2645396
:10136800c2f200031b6a984745f2a763c2f2000362
:101378001b782bb14cf20003c4f2804302229a7509
:1013880070bd45f26453c2f200035b684c00e25240
:1013980001314cf20003c4f280431b7edb07b0d559
:1013a8004cf20003c4f2804301221a750fe04cf29c
:1013b8000003c4f280431b7edb07a2d54cf2000376
:1013c800c4f2804301221a75002c00d174e745f25b
:1013d8006453c2f200039b68ab4223d945f26453bd
:1013e800c2f200031b686a00d25a4cf20003c4f22e
:1013f80080439a62013573e745f26453c2f20003f1
:101408001b69002b00d16be74cf20003c4f2804348
:10141800ff229a6245f26453c2f200031a69013a44
:101428001a615de745f26453c2f200031b69002ba1
:1014380000d155e74cf20003c4f280434ff6ff7227
:101448009a6245f26453c2f200031a69013a1a61ba
:1014580046e745f2a763c2f2000301221a7050e77b
:101468004cf20003c4f2804301229a7503321a75c4
:0214780047e744
:020000040000fa
:020000040c00ee
:10147a0070b5050045f26454c2f20004207fc0b280
:10148a00002800d003e100297ad0002d78d04cf250
:10149a000004c4f28044666807243440012c00d159
:1014aa0096e045f26450c2f20000056042600024f2
:1014ba0044618461046145f26450c2f200008160b3
:1014ca00002a00d189e045f26452c2f20002d360d8
:1014da0045f26452c2f20002012111774cf2000275
:1014ea00c4f28042127e520708d54cf20002c4f2be
:1014fa0080420420916a117e0142fbd14cf2000223
:10150a00c4f28042518b042001435183117e802012
:10151a000143117645f26452c2f200029168d26820
:10152a008a4206d945f26452c2f20002d068401ad1
:10153a0010614cf20002c4f280425268520768d12c
:10154a0045f26452c2f2000292698a424cd245f2d2
:10155a006452c2f20002116808784cf20001c4f227
:10156a0080418862916901319161002b00d186e046
:10157a004cf20003c4f2804304229a75012087e0ea
:10158a00002b00d184e0002a00d181e04cf2000453
:10159a00c4f28044666807243440012c13d045f213
:1015aa006450c2f200000560426000244461846114
:1015ba000461002d00d07ee745f26451c2f20001b9
:1015ca00002088607ce7002963d1dc07e7d55fe06b
:1015da00cc075dd4002be2d0f7e745f26452c2f2a1
:1015ea0000020021d16073e745f26452c2f20002a0
:1015fa001269002ab9d04cf20002c4f28042ff21db
:10160a00916245f26452c2f2000211690139116114
:10161a00abe745f26452c2f2000291684908916050
:10162a00116949081161d1684908d16091689269c4
:10163a008a420ed245f26452c2f200021168088848
:10164a004cf20001c4f280418862916901319161d2
:10165a008be745f26452c2f200021269002a84d072
:10166a004cf20002c4f280424ff6ff71916245f2d9
:10167a006452c2f2000211690139116175e74cf234
:10168a000003c4f2804301229a75012000e0002081
:08169a0070bdcc0799d5fbe7f8
:020000040000fa
:020000040c00ee
:1016a20048f20003c4f2005301221a6142f200031d
:1016b200c4f20053d96912040a43da6142f2000209
:1016c200c4f2005240f20011d3681942fcd046f233
:1016d2000003c4f2004301229a6414325a6479323c
:1016e200da641a6c40f602210a431a6446f20002d6
:1016f200c4f20042c90513690b42fcd04af200034e
:10170200c4f200430122da604af20002c4f200424b
:10171200012193681942fcd04af20003c4f200434b
:1017220002221a614af20002c4f2004201219368c5
:101732001942fcd04af20003c4f2004302225a6169
:101742004af20002c4f20042012193681942fcd01d
:1017520048f20003c4f2004340f20612c0f2010252
:101762001a6248f20002c4f200420421536819428c
:10177200fcd148f20003c4f2004340f20612c0f268
:1017820002025a6248f20002c4f20042082153687f
:101792001942fcd148f20003c4f2004398224121cd
:1017a200995048f20002c4f20042982001391358bd
:1017b2001942fcd048f20003c4f2004394224121b2
:1017c200995048f20002c4f20042942001391358a1
:1017d2001942fcd048f20003c4f20043d82241214e
:1017e200995048f20002c4f20042d820013913583d
:1017f2001942fcd048f20003c4f20043dc2241212a
:10180200995048f20002c4f20042dc200139135818
:101812001942fcd048f20003c4f20043e022412105
:10182200995048f20002c4f20042e02001391358f4
:101832001942fcd048f20003c4f20043e4224121e1
:10184200995048f20002c4f20042e42001391358d0
:101852001942fcd048f20003c4f20043ec224121b9
:10186200995048f20002c4f20042ec2001391358a8
:101872001942fcd048f20003c4f20043f022412195
:10188200995048f20002c4f20042f0200139135884
:101892001942fcd048f20003c4f2004340f20412a1
:1018a2004121995048f20002c4f2004240f2041071
:0a18b200013913581942fcd07047a9
:020000040000fa
:020000040c00ee
:1018bc00f0b5de4657464e464546e0b585b001903c
:1018cc000c000391914602930f9b53b301235b428f
:1018dc000f9a136004f00af9060010b34b463bb3a1
:1018ec0034b3378874237b4345f23022c2f20002b2
:1018fc009446634464331b7833b174237b43634451
:10190c001b6e019a93420cd174237b439a4645f289
:10191c003023c2f2000353449b46180002f0edfa48
:10192c0068b905b03cbc90469946a246ab46f0bda2
:10193c000e9b002bf5d0029b002bd2d1f1e7338804
:10194c00984674225a4345f23023c2f200039c4657
:10195c0062449069d36ed16969b100228b42a44173
:10196c002340dc00e418a400041925783db10132b1
:10197c0001339142f2d1584602f08dfcd1e701229d
:10198c0022700022226274214246514345f23022d9
:10199c00c2f2000294466144888c00043278120230
:1019ac000243ff2018400243e261898c013189b265
:1019bc004ff6ff72914220d074224046424345f2ca
:1019cc003020c2f200008446624491840133d36615
:1019dc00029b6360039ba360012363750023237543
:1019ec00019ba361b36953b1082b1dd84b465d0015
:1019fc00e5600e9b5b00236105e00121dce74b46b3
:101a0c00e3600e9b23610f9be2691a605b461b6ac5
:101a1c008bb145f23023c2f2000353441b6ae3b38b
:101a2c001a6ab2bb1a0037e04b469b00e3600e9b70
:101a3c009b002361e7e75b461c6202236375200071
:101a4c0001f037fe74237b4345f23022c2f20002d0
:101a5c0094466344db6a01330ad074237b4345f21a
:101a6c003022c2f20002944663441b6b013318d13e
:101a7c0023696268e168a06874247c4345f23025d0
:101a8c00c2f20005ac46644464696468a04704e093
:101a9c001a00136a002bfbd11462584602f0fbfbb0
:0a1aac003fe7200000f001f8f7e723
:020000040000fa
:020000040c00ee
:101ab600f8b5040081690a0aff252a4074235a43af
:101ac60045f23020c2f200008446624429408d006f
:101ad6006d18ed00d268ad182e887343634400225a
:101ae6005a649a642269e3689a4200d274e07421c7
:101af60071436144d31a4b6445f64521c0f6004153
:101b06007427774345f23023c2f200039c466744ac
:101b1600fb6ad8b2220005f03ffa42f22b01c0f66a
:101b26000041386bc0b2220005f036faab69002bd3
:101b36005dd0082b64d87425754345f23023c2f274
:101b460000039c46654440f20011286b05f0cff86f
:101b5600e86a40f2001105f0caf82369002b62d149
:101b660074252f00774345f23023c2f200039c46ca
:101b7600674400220021386b05f075f8bb6c002223
:101b8600ba6475432a00403245f23021c2f20001a0
:101b96008c466244b96b386bc0b201f074f9e368e5
:101ba600002b56d174335e4345f23023c2f2000354
:101bb6009c46664400220021f06a05f054f8736cd6
:101bc60000227264726b44f6fc41c2f20001f06ab4
:101bd600c0b201f058f9f8bd7421714345f23020c6
:101be600c2f20000844661449b1a8b6484e700219c
:101bf600386b05f07cf8f86a002105f078f8ace758
:101c06007425754345f23023c2f200039c466544b1
:101c160040f20021286b05f06af8e86a40f20021dc
:101c260005f065f899e77425754345f23023c2f24d
:101c360000039c46654440f600020021286b05f02f
:101c460012f8a96b286bc0b22369626801f01bf910
:101c5600a5e77425754345f23023c2f200039c467e
:101c66006544002240f20041e86a04f0fcffab6cd8
:101c76007bb123697422564345f23022c2f2000238
:101c860094466644726ba168f06ac0b201f0fbf834
:061c9600a1e7e368eee7a0
:020000040000fa
:020000040c00ee
:101c9c00f0b5de4657464e464546e0b589b080461f
:101cac000d000192029303f09dff00234246136046
:101cbc00002d00d1abe06b680493ab680593ef6823
:101ccc002e696c69eb6999462b6a9a466b6a069386
:101cdc0044f61013c2f20003da6d07925b6e9b465a
:101cec00002c00d16be0002f00d177e00023039390
:101cfc0040f2000b0023eb606b6140f21c120021e0
:101d0c00200005f052fa3200ef21380005f04dfab0
:101d1c00049b2362019b6366029be366039b6367e0
:101d2c005b46e367e760b3084c4a944663449b0008
:101d3c00ff18a76027616661583ea66146f601113f
:101d4c00c0f60041200000f0e3fd4b46a362e362c5
:101d5c00059b63630623a3630233e3635346636407
:101d6c00a3642200c832146146f68133c0f60043e6
:101d7c009360eff3108672b644f61015c2f20005ac
:101d8c00ab681a6d226540f21422ab50200003f0b0
:101d9c00abfc43461c6040f21823eb58092b34d89b
:101dac00069b012b2cd00723636286f3108800203e
:101dbc0009b03cbc90469946a246ab46f0bd40f2f9
:101dcc001c1101209047040078b327b15b460393a4
:101ddc0040f2000b0ae05b46039301e000230393ff
:101dec0031000220079b9847070018b1002d00d145
:101dfc0083e77fe7636fc3b121000120d84714e06c
:101e0c000021200001f0e6f9cfe71620d0e744f6d8
:101e1c001013c2f20003da6d07925b6e039340f26b
:101e2c001c1101209047040038b940f229420421ca
:101e3c00012003f076fd0b20bae7039b9b4647f28b
:101e4c004013c0f6004304930123059340f600268b
:101e5c0040f2000a40f210090693c1e7ffffff3f72
:020000040000fa
:020000040c00ee
:101e6c00f0b5c64600b580460f00160044f61014b7
:101e7c00c2f2000440f2ec320021200005f095f98a
:101e8c00eff3108572b600f020fd052121760322b8
:101e9c0062760023a376e37621776277a377e377e4
:101eac0046f62063c0f60043236200f024fd40f2a6
:101ebc009423e05000f01dfd40f29823e05000f018
:101ecc0021fd40f29c23e05000f01efd40f2a023c7
:101edc00e05000f012fd40f2a423e0500433012244
:101eec00e25043466362e76426656765a66546f281
:101efc002363c0f60043e36540f28c23e618a6602a
:101f0c001d33ff33e318e36000f01efd2061022354
:101f1c00636140f21c11300000f019fd012800d162
:101f2c0079e044f61012c2f200020023536140f231
:101f3c008c23d318d36040f29823d35840f29c21c1
:101f4c005258583a934206d24ef6ef71cef6ef71d4
:101f5c0002c39a42fcd844f61014c2f2000446f6ae
:101f6c003063c0f6004340f2ac22a35040f2b023e1
:101f7c000022e25010330132e25004330532e250b9
:101f8c0004330232e2501027143be7500433e7507d
:101f9c002433093ae250503be618d833e65046f663
:101fac008133c0f6004340f25c32a350300003f0a2
:101fbc009bfbbc23e65040f22833e6500433e6503a
:101fcc0080235b02a26f1343a36767672200113261
:101fdc00ff3240f29013e250903b40f2e832e25074
:101fec0044f24023c0f20f0340f20412a35040f21b
:101ffc008073c6f6b5030432a35043f22053c5f2e6
:10200c005803236000f074fc85f3108862b600203e
:0e201c0004bc9046f0bd85f31088c730f8e78d
:020000040000fa
:020000040c00ee
:10202a00f0b5c64600b582b001900c008869030a73
:10203a00ff252b407422534345f23021c2f200019e
:10204a008c466344284085002d18ed00db68ed18a6
:10205a002f887a436244926c002a4bd174267e43bd
:10206a00664473699b6898470028fad11c20285651
:10207a00431c0fd06a7f002a65d11f32024001211a
:10208a00914080b2400989231b049c466044c001e8
:10209a0005f0f8f87420784345f23023c2f20003c1
:1020aa009c4660446b6aa26993425fd1019b012bf3
:1020ba0057d0019b022b56d01426a657e36998469f
:1020ca0004f0b9ff6b68002b52d074247c4345f2ac
:1020da003023c2f200039c46644426342378013339
:1020ea002370aa686b684146300098472378013b01
:1020fa0023703de0742635007d4345f23023c2f259
:10210a0000039c46654400220021286b04f0a9fdc7
:10211a0077433a00403245f23023c2f200039c462c
:10212a0062442b6bd8b2ab6ca96b00f0aafea16813
:10213a002369c918eb6ad8b2ab6c6a6b00f0a1fece
:10214a000023ab6421e01f2202400121914080b2aa
:10215a00400989231b049c466044c00105f094f899
:10216a0098e72375a8e7fd332375a5e704f063ff15
:10217a007422574345f23023c2f200039c46674457
:10218a003c6a14b1637d012b03d002b004bc9046b3
:10219a00f0bd200001f08efa022363752000fff7dc
:0421aa0085fcf2e7d7
:020000040000fa
:020000040c00ee
:0221ae00fee74a
:020000040000fa
:020000040c00ee
:1021b000f0b587b0039003a804f0aaf8002802da6b
:1021c000002007b0f0bd039b1b095d1e202d0ad91e
:1021d00040f2ff12023b934224d84d4adb089b1881
:1021e000043b1d7801352a000120002104f08afefd
:1021f000002443428c4100930194464c009822688d
:1022000063681040020001990b401a43f2bb039b24
:1022100005a81033059304f0adfe50b90c223e4bd7
:102220001a60cee73a4adb099b18043b1d7811354a
:10223000d9e73a490c68a04206d0059b0400103b40
:1022400005930123103483600125059be2180a6081
:102250002b43083a083c28c26360002cb0d0200011
:1022600004f036fb58b123686168ab43e31a5a683f
:10227000aa4352185a606168a94362501c002000aa
:10228000039904f0e0fc200008309ae7204a244932
:102290003c3290bb584203404b43db0ed65c2036a9
:1022a000300004f0cbfd731cdb001a4ae458083bf5
:1022b0009b189c42a1d0272e25dd0235ae4201dcc1
:1022c0003f2e20d101226368039f9343dd1b28002a
:1022d000009304f0f7f8864215d1e268a168e3198b
:1022e000da60996093609a68d360012217431f6097
:1022f0005d60009be5506760c1e7434203404b438c
:10230000db0ed65ccce73100200003f0ebfcb6e737
:10231000e859000c084d00209c560020004d00207c
:0423200029e66b0738
:020000040000fa
:020000040c00ee
:10232400f0b5c64600b54468eff3108572b644f6be
:102334001013c2f200039e6840f2000840f2ac0c95
:102344006663e369b34200d072e0236a012b1ad8b2
:10235400236be3b1012b1ed1e06ae0610023a36388
:1023640023690f2b36d0002720b1e06121002c31e6
:1023740000f034ff85f3108823690f2b3ed038001a
:1023840004bc9046f0bd013b2362002751e0e361a9
:10239400236200274de0013be06a4246a2636246a5
:1023a400825810e0a76bb94200dda1636146525820
:1023b400013b85f31088eff3108572b6616bb1426f
:1023c400bed1002bccd0916a876ab942eadda763fb
:1023d4001000ebe7002731e000239022b350043ac9
:1023e400b350336339e08c22b35036e0903301228a
:1023f400c250043bc450e4632464b6e78133f35809
:102404008c22b2584bb1002002e0d26b013b2bb1bd
:10241400916b8842f9da0800f7e700203063eff3a4
:10242400108472b6300001f0a5fc84f31088a6e78e
:102434000127002023690f2b00d09be79023f3583a
:10244400012bc9d0013b9022b3508c23f158e36b8c
:10245400226cd3631a648c42c5d0002800d189e76a
:1024640023690f2b00d080e77d33c358002bbdd0e8
:1024740090214258013242501a6cd16be1632264bc
:06248400d4631c6471e743
:020000040000fa
:020000040c00ee
:10248a0010b54ef20003c4f2024340f250129c58b7
:10249a004ef2ee73cff6f7732340a3b14ef2000269
:1024aa00c4f2024240f25011535045f25463c2f250
:1024ba0000031b683bb145f25463c2f2000359683a
:1024ca001b6820009847e30718d54ef20003c4f2b0
:1024da00024340f250120121995054329a5845f25f
:1024ea001463c2f200031b6843b145f21463c2f2db
:1024fa00000359681b687f2010409847e30618d5e7
:10250a004ef20003c4f2024340f2501210219950d5
:10251a0064329a5845f21463c2f200039b6843b1cd
:10252a0045f21463c2f20003d9689b687f20104009
:10253a00984723030dd54ef20003c4f2024340f23a
:10254a00501280210903995048329b580bb1db077e
:10255a0034d4230515d54ef20003c4f2024340f2e7
:10256a00501240f60001995045f26c63c2f2000322
:10257a001b6833b145f26c63c2f2000358681b68ea
:10258a009847e30419d54ef20003c4f2024340f21d
:10259a00501241f200019950a4329a5845f26463ec
:1025aa00c2f200031b6843b145f26463c2f200033e
:1025ba0059681b683f201040984710bd45f25c637c
:1025ca00c2f200031b68002bc3d045f25c63c2f25f
:0c25da00000359681b6800209847bae70e
:020000040000fa
:020000040c00ee
:1025e60030b5002800d0a0e045f23023c2f2000347
:1025f60070229b5c012b02d00120404230bd45f287
:102606003023c2f2000398541b7c5bb2022b60d1cc
:1026160045f23023c2f200031b78002b59d045f255
:102626003023c2f200035b78002b5cd145f23023e5
:10263600c2f200035b68002b5fd145f23023c2f281
:1026460000039d68002d66d045f23023c2f20003d8
:10265600db681800dc78283300223cb10132aa423c
:1026660059d018002833c478002cf7d10123c37041
:102676000b0705d545f23023c2f2000301245c7036
:1026860045f23023c2f200035c6801345c609c8c26
:102696002404ff252a40224342629b8c01339bb2cd
:1026a6004ff6ff72934234d045f23022c2f2000256
:1026b600938470230124d454042319438170002386
:1026c60043608360ff220277df3a83540380406ac7
:1026d60094e745f23023c2f2000370220121995497
:1026e600012040428ae745f23023c2f200037022fd
:1026f600012199540120404280e70b079dd545f200
:102706003023c2f200037022012199540120404275
:1027160074e70123c8e745f23023c2f200037022b2
:10272600012199540120404268e70120404265e7b3
:020000040000fa
:020000040c00ee
:02273600fee7bc
:020000040000fa
:020000040c00ee
:1027380070b504000d0045f20853c2f20003187d7d
:10274800c0b22c229b5cdbb2002b00d092e00028a8
:1027580000d091e0002c00d18de02268002a00d141
:1027680089e019b945f20015c0f225251301ab42dd
:1027780009d9d300ab4261d953009b18ab4260d84a
:102788000320042601e0102000260023002103f086
:10279800d5fc030c0904194300042a00002303f0a4
:1027a800d3fd80235b02181a4ef20003c4f2804363
:1027b8001a6802218a431a604ef20002c4f280426b
:1027c800d369002bfcd180b24ef20002c4f28042e1
:1027d80090816368022b37d04ef20002c4f2804227
:1027e800136841f6ff71cff2ff010b4076031e43d9
:1027f80080235b041e4316605168a368e0680343a6
:102808001e4801400b4361680b4353604ef20002bf
:10281800c4f28042d369002bfcd14ef20003c4f20b
:1028280080431a6802210a431a604ef20002c4f279
:102838008042d369002bfcd101201ce0082002262d
:10284800a3e700200026a0e74ef20003c4f280436d
:102858001a6841f6ff71cff2ff010a40760316436a
:102868001e605968a268e0680243472081430a4312
:102878005a60cbe7002070bd1800fce7b8dfffff07
:020000040000fa
:020000040c00ee
:10288800eff3098124390846f0c144464d465646bf
:102898005f46f0c174460c60404ca568286100266c
:1028a800a660e668002efcd0a660f7690137f761dc
:1028b800316908461031f0c9a046a946b246bb4660
:1028c8000c68a646f0c8143080f30988704734486d
:1028d800344902688a43114301600221eff31480ee
:1028e8000143684680f3098881f314882e4880f3f1
:1028f8000888704770472d4870472d4870472b4807
:102908006946081a2038704768467047284827499a
:10291800401a7047026907239a43543a0023136008
:1029280053609360d360136153619361d361214b0a
:102938001362002353629362d362136353631e4b83
:102948009363d1631d4b136402617047eff30880f2
:102958007047eff3148202231a40022a1cd1134a4b
:10296800954519db124a954516dc0c4b9a6890423e
:1029780012d1da6843189a420ed1084b1a69eff35c
:1029880008839a4208d102696b469a4204d1c26907
:10299800012a01d1002000e00120704710490020e1
:1029a80020ed00e00000ff00b05a0020fcfb0120f1
:1029b800fcff0120fdffffff3171000c000000014a
:020000040000fa
:020000040c00ee
:1029c800f0b5c64600b5040015001e0041629c2300
:1029d800c3586bb3816a984242d040f2a00842467d
:1029e80087580a001e32920044f61010c2f2000006
:1029f80084466244526840f29c0c60463b50404614
:102a08001f50944257d09c230022e250002e64d1dc
:102a180075b1a823e5502b68002b65d0b0229858d3
:102a28009c50ac216350a05044506b6801336b60dc
:102a380044f61013c2f200039a68db689a420cd07d
:102a480062b64ef60453cef200038022520519688e
:102a58000a431a60bff35f8f72b604bc9046f0bd9c
:102a680044f61012c2f200020b001e339b0094467b
:102a780063440020586001238b40906f984390670f
:102a880048b944f61013c2f20003012252425a67b1
:102a98000022da60b7e703f0dcfd44f61012c2f258
:102aa800000250671f2303401e339b009446634473
:102ab8005b68d360a7e744f61012c2f200021e3129
:102ac8008900944661444b60d268a2429bd144f687
:102ad8001012c2f20002d36095e72c33e6502000b2
:102ae800c83002f0fffb93e7ac33e4500433e45002
:082af8002c60af3b6b609be713
:020000040000fa
:020000040c00ee
:102b0000f8b50600eff30582eff310831c0072b6f0
:102b100012b184f31088f8bd44f61012c2f200021c
:102b2000956883f31088280003f039f8280002f034
:102b3000d0feeff310873c0072b66b6b012b46d0d2
:102b40000523ab637f33eb589bb18823eb5803b16c
:102b50001e608423eb58db6aea6a93423fdc8423dd
:102b6000e858002100f03cfb84f31088eff3108458
:102b700072b644f61013c2f2000340f2a8329b581a
:102b80007bb144f61016c2f2000640f2a83784f377
:102b9000108803f02df8eff3108472b6f359002b70
:102ba000f5d16b6f2bb344f61013c2f2000340f261
:102bb000a8329d500023002205212800fff704ffc2
:102bc00040f6d7320221032002f0b1fea1e72e67c2
:102bd0000023002203212800fff7f6fef0e7eb6256
:102be000280001f0c9f887f31088eff3108472b65b
:102bf000b5e7eb6f6bb144f61013c2f2000340f27d
:102c0000a8329d500023002205212800fff7dcfe9a
:102c1000d6e744f61013c2f2000340f214229d508e
:102c2000280002f005fc0023002202212800fff703
:042c3000cbfec5e72b
:020000040000fa
:020000040c00ee
:102c3400f0b58fb00d934b680c9006938b680d0024
:102c44000793cb6816000393069b0f68002b42dba7
:102c540002239f4310233b400a93079b04930a9b40
:102c64003bb1726833681343079a13b11300023bf4
:102c7400049308233b400b935a1e9341049ad31a9e
:102c840004933368039a0893736809932b695c1e51
:102c940000231355069b0593012c1fdc0a9b002b74
:102ca40050d10b9b1bb12023039a013c13552b6974
:102cb40000975a1e039b121b19190c98079b02f0cc
:102cc400b5f90c9b5b68db0503d56b68984200daa9
:102cd40018000fb0f0bd01230693bbe7089b099ac7
:102ce40013435bb9059b002b08dc069a049b9b1ad3
:102cf400059a9b18002bd1ddbb07cfd50f23089a6b
:102d0400013c134018005730092b01dc3033180004
:102d14000d9b413b192b06d820230343613b192b00
:102d240001d804f054fa039b1855059b013b059305
:102d3400099b1a07089b1b091a43099b08921b0944
:102d44000993a9e70cce1343002baad0039b0d9a39
:102d54001b19013b1a703023039a023c1355a0e758
:020000040000fa
:020000040c00ee
:102d6400f0b5c64600b5060040f23012002104f06a
:102d74005bf94ef20003c4f2024340f218115a58b0
:102d8400012002435a504ef20002c4f202421830ab
:102d9400ff301839ff3913581942fcd04ef20005a0
:102da400c4f2024540f218184346eb58022213437a
:102db4004246ab5045f2f854c2f200042660236840
:102dc4009b089b004ff6ff773b400022c8f20102ac
:102dd400134340f2a0116b503300483363606368bf
:102de4009b089b003b40134340f2b012ab503300ae
:102df4009033a360a3689b089b003b40043aab500c
:102e04003300d833e360e3689b089b003b40802297
:102e14005204134340f2c012ab5033002133ff334a
:102e2400236123699b089b003b4080225202134389
:102e340040f2f012ab502936ff366661606947f202
:102e44006021c0f60041e93aff3a04f0e3f863690f
:102e54009b089b001f4080239b021f4340f2841366
:102e6400ef504346eb58012293434246ab504ef297
:102e74000002c4f2024240f2181001211358194210
:082e8400fcd104bc9046f0bd36
:020000040000fa
:020000040c00ee
:102e8c00f0b5040145f2a845c2f20005ac46644415
:102e9c00267bf6b242f20004c4f280443f27e55d83
:102eac00edb2e0550f37e45da40702d10024002eeb
:102ebc005cd142f20004c4f280444e260327a7558d
:102ecc00060145f2a844c2f200043419023f2773ec
:102edc0045f27844c2f20004345b64054ed5c9183f
:102eec00340045f27846c2f20006b4466444616090
:102efc0045f27841c2f200010401615a090546d538
:102f0c00d218210045f27844c2f20004a446614470
:102f1c008a6045f27842c2f2000201018a5a920597
:102f2c00920fd3409bb245f27842c2f20002944613
:102f3c0061444b8042f20002c4f280424021535c57
:102f4c00022423435354516c536c9b049b0e082254
:102f5c000a40134301244bb942f20002c4f28042ee
:102f6c001169012383400b431361012442f20003d6
:102f7c00c4f280433f229d542000f0bd040145f271
:102f8c007846c2f20006b44664446160b0e70101c1
:102f9c0045f27844c2f20004a44661448a60b8e762
:020000040000fa
:020000040c00ee
:102fac0070b50400002800d187e04423c35c0020e6
:102fbc00402b00d970bd45f22c40c2f200004822d3
:102fcc00002104f02df84823e15c8b1e012b2bd93a
:102fdc0045f22c40c2f2000023685a05d20803685f
:102fec005b0f5b0713430360012909d145f22c42a7
:102ffc00c2f20002937920210b4310210b439371f1
:10300c004423e25c082a22d90c2a4cd9102a4cd928
:10301c00142a4cd9182a4cd9202a4cd93021914247
:10302c00894149420e3113e045f22c42c2f20002b2
:10303c002368d800c00813685b0f5b070343136059
:10304c001b0e40200343d3700329cfd0d8e71100c7
:10305c0045f22c45c2f200050f231940ab790f2025
:10306c0083430b43ab7128000830211d03f0ceffc6
:10307c0046f23770c0f60040002104f03bf845f2f0
:10308c00ad63c2f2000301221a702900012002f084
:10309c004bfe002800d08de745f2ad63c2f2000371
:1030ac0003221a7086e70921d2e70a21d0e70b2107
:0e30bc00cee70c21cce70d21cae700207ae711
:020000040000fa
:020000040c00ee
:1030ca00f8b506000d0002f08efd002d4dd0ac695a
:1030da00002c00d16be00023ab61502200212000bc
:1030ea0004f064f800276b68a3606b692361eb68de
:1030fa00e3602b69a3626761eff3108172b644f64d
:10310a001013c2f2000340f2502298689850043219
:10311a009b58c3b944f61013c2f200030120985019
:10312a0004329c506464a46445f25843c4f655536f
:10313a002360746045f24843c4f65553336081f303
:10314a0010880020f8bd44f61012c2f200020133c2
:10315a0040f25420135040f25823d258936c586cc2
:10316a006064a3645c649464dee744f61013c2f2fc
:10317a0000035f6edb6d502109209847040010b3ed
:10318a0050220021200004f011f847f26823c0f60b
:10319a000043a3600e232361013be3600c3ba3625f
:1031aa00a9e750220021200004f000f89be744f62a
:1031ba001013c2f200035f6edb6d5021092098479d
:1031ca0004000028edd140f26e420421012002f0f1
:0631da00a9fb0c20b6e782
:020000040000fa
:020000040c00ee
:1031e00070b5040089b1ac23c358984218d0b02000
:1031f00025584a68013a4a60ac22ab501d500a6813
:10320000a24211d0a8230022e250dc23e3581bb1d4
:103210002000c83001f0beff9c23e35833b170bddd
:1032200000230b604b60ede70b60ebe744f61013f7
:10323000c2f20003d8689968a26a0023636213008f
:103240001e339b0044f61015c2f20005ac466344e1
:103250005b68c3b1a0229e589c509c256351a65028
:103260007451040071b38c42d9d062b64ef6045347
:10327000cef200038022520519680a431a60bff398
:103280005f8f72b6cbe79c23e4500433e45044f6de
:103290001013c2f2000315001e35ad009c466544b4
:1032a0006c60012595409e6f35439d675b6f93422f
:1032b00006da44f61013c2f200035a67dc60d1e765
:1032c0000400cfe70028aad08442a8d062b64ef608
:1032d0000453cef200038022520519680a431a6093
:0832e000bff35f8f72b69ae79d
:020000040000fa
:020000040c00ee
:1032e80070b5002800d077e045f2a423c2f20003ad
:1032f8001b78002b00d072e045f2a423c2f2000331
:1033080001303d229854013a985418700c685c605a
:1033180000229a604d68dd608d681d619882c86ad8
:103328009861086bd8611a625a6228201a544a6b4d
:103338001a65ca68da620a691a634a695a638a6945
:103348009a63ca691a640a6a5a644a6a9a648a6aef
:10335800da648a6bda65db6a013323d145f2a4218a
:10336800c2f2000147f27110c0f600406369984745
:1033780045f2a423c2f200031b6b01331fd145f2af
:10338800a421c2f2000146f66120c0f600404b6855
:103398001b68984745f2a423c2f2000302229a70e0
:1033a800002070bd45f2a422c2f20002d06a46f69f
:1033b8008911c0f60041c0b203f0edfdd8e745f22f
:1033c800a422c2f20002106b46f65d11c0f600415d
:1033d800c0b203f0e0fddde701204042e1e7012053
:0433e8004042dee79a
:020000040000fa
:020000040c00ee
:1033ec00f0b5ce46474680b583b004000e0001927e
:1033fc000278002a66d002228256022a62d1012962
:10340c0038d0476a002f5dd03968080aff2528405c
:10341c0042001218520145f2a420c2f20000844668
:10342c0062440d402d011269ad18ea68914241d1f8
:10343c00019a7a767a7e52b201321dd0fb683b61da
:10344c003b6a99463100200003f01cfc6b68abb35f
:10345c0040f228084346e35c01334246a354aa6871
:10346c006b684946019898474346e35c013b4246ea
:10347c00a35423e0076ac5e7226b013202d0002374
:10348c003b61dde7e26c1168994210d051688b42c8
:10349c000bd0916800228b4205d0fa616368db681f
:1034ac0098473861cce7023202e0012200e00022aa
:1034bc000132f2e73100200003f0e4fb3eb92000ba
:1034cc0002f04cf803b00cbc90469946f0bd2000bd
:0634dc0002f0caf9f6e758
:020000040000fa
:020000040c00ee
:0234e200fee703
:020000040000fa
:020000040c00ee
:1034e400f0b58bb0eff3108572b644f61013c2f248
:1034f400000340f290129a588d33ff339a4210d051
:10350400131d44f61012c2f2000240f290115350ff
:103514001c6800230793002c51d0160040f290172a
:1035240021e02a4bede7e26902ab9361e361089481
:103534000992f25907920022049217e00023636172
:103544000193a36885f310880bb120009847eff32b
:10355400108572b6019ba3421cd0f3591c6802aac1
:1035640094421dd05cb3079b002bdcd0a369e269b5
:10357400da619361f2591360a461e461019401abcf
:10358400636100232268002adcd16368002bd5d054
:103594002360d6e700236361200001f0a5fedce789
:1035a400110092698a420ed0099bd3619a6144f654
:1035b4001013c2f2000340f290115b581a6085f3b5
:1035c40010880bb0f0bd00221a60f8e7204a0020f2
:020000040000fa
:020000040c00ee
:1035d400f0b5c64600b580460e001500002a6ad034
:1035e40028b1012835d0002004bc9046f0bd4ef22d
:1035f4000003c4f2024340f2a4129c58a404a40e93
:10360400e1b1012704e001377b1edbb29e4215d9ec
:1036140045f2f853c2f200031b68e1000919c9001e
:1036240059184822280003f0f5fcbe4206d048355c
:103634000134e4b2012ce6d14446e4e73f231c40c4
:103644004ef20003c4f2024340f2a8129c5001203f
:10365400cae74ef20003c4f2024340f2b4129c588b
:10366400a404a40ee1b1012745f2f853c2f2000309
:103674005b68e1000919c90059184822280003f0c1
:10368400c9fcbe420cd048350134e4b2631e5a1e54
:1036940093415b421c4001377b1edbb2b342e3d350
:1036a4003f231c404ef20003c4f2024340f2b8121e
:0a36b4009c50012098e7002096e7e3
:020000040000fa
:020000040c00ee
:1036be00f0b5c64600b586b006008269130aff2132
:1036ce000b407420434345f23024c2f20004a4465a
:1036de00634411408c006418e400db68e41823880e
:1036ee009846030041464b4363449b6a9a423fd03f
:1036fe0001a823000c330200a2cba2c222cb22c20d
:10370e00742543465d4345f23023c2f200039c46c6
:10371e0065442a6d63699b009b5883606a6d2369bb
:10372e009b009b584360ea6ca3699b009b58c36047
:10373e006b691b6800219847b369ab622023002296
:10374e00e2541c202056431c0ed0627faab91f32b1
:10375e0002400121914080b2400989231b049c46fe
:10376e006044c00103f08efd06b004bc9046f0bd6f
:10377e002023e35c002be4d0bae71f220240012194
:10378e00914080b2400989231b049c466044c001cd
:06379e0003f076fde8e7f0
:020000040000fa
:020000040c00ee
:1037a40070b58923db05a02252031a601a61012235
:1037b40047215a5403315a5401315a5404315a544a
:1037c40001315a5401315a54002152201954013004
:1037d4001a540130195433244438185525307725a8
:1037e4001d54023019540130195401301954013058
:1037f4001954563040f680051d508e38c72558554b
:1038040004355855183d5955023559554b358026c0
:1038140076025e5142355a5507355a550735585583
:103824005030ff301a5401301a5401301a542238df
:1038340019540238ff38183d585501355c55313d4f
:10384400ff3d40f2c0169d5501369d55c435ff35e8
:103854005a5503355a5501355a5503355a550135cc
:103864005a55b032ff329c5406329954013298545e
:10387400b53aff3ab931ff315a5401315854013144
:043884005a5470bd65
:020000040000fa
:020000040c00ee
:10388800f8b504000378abb31023c356022b31d12b
:10389800066ab269110aff25294072334b4345f283
:1038a8003021c2f200018c4663442a409500ad18cd
:1038b800ed00db68ed181c202856431c0ed06a7feb
:1038c800cab91f3202400121914080b240098923c0
:1038d8001b049c466044c00103f0d5fc6b6ab269c6
:1038e800934216d0200003f0a7fb256a15b16b7d23
:1038f800012b24d0f8bd1f2202400121914080b243
:10390800400989231b049c466044c00103f0bdfca8
:10391800e4e701233375f769200003f08dfb6b683a
:10392800002be2d02626a35d0133a355aa686b6855
:10393800390001209847a35d013ba355d5e728002e
:10394800fff7b9fe02236b752b696a68e968a868f6
:0839580064696468a047cde733
:020000040000fa
:020000040c00ee
:103960004ef20003c4f2024340f2181201219950b2
:103970004ef20002c4f2024240f2181013581942eb
:10398000fcd04ef20003c4f2024340f218129958e0
:1039900002200143995040f20c1140f64430585037
:1039a00043f21141c2f2002140f21c10195040f2c2
:1039b000bc1140f277705850be39ff3940f2981070
:1039c000195004301950ca31ff319638ff38585019
:1039d000483921305850995840f2003001439950ed
:1039e00099580120814399504ef20002c4f20242dc
:1039f0001830ff30012113581942fcd14ef2000358
:103a0000c4f2024340f258120021995004320131ad
:103a100099504df6dd52c3f6ca725431ff315a50f7
:103a200045f2f853c2f2000319001c3100221a704b
:083a300001338b42fbd170470a
:020000040000fa
:020000040c00ee
:103a380030b589b002f0c7fc01f028fe8922d20512
:103a480040f249130121d1543431ff31535c0f2026
:103a5800034050200343535401a801f0d7fe0f211f
:103a680001a802f0fbf903f031f940f20001c2f2bb
:103a780000014af20850cbf6935043f68062fef7f5
:103a8800f1f945f24c60c2f2000001a901f08efe86
:103a980001a802f0e8fa45f24460c2f200000021f1
:103aa80001f054fe46f62142c0f6004245f280601d
:103ab800c2f200000023002102f0a4fc43f6c97200
:103ac800c0f6004245f28465c2f2000500230021d9
:103ad800280002f097fc45f25d32c0f6004245f23c
:103ae8007c64c2f2000400230021200002f08afc5a
:103af8002868002102f03cfd2068002102f038fd12
:063b0800002009b030bdf1
:020000040000fa
:020000040c00ee
:103b0e00f8b506000d0002f06cf8002d37d0ec6809
:103b1e00002c34d00023eb6000273422002120003b
:103b2e0003f042fbe760eff3108172b6002d4cd02c
:103b3e006b68a36044f61013c2f2000340f2202219
:103b4e009868985004329b58002b2cd144f61013d1
:103b5e00c2f200030120985004329c50a462e46229
:103b6e0044f65663c4f24f332360746044f64863e0
:103b7e00c4f24f33336081f310880020f8bd44f651
:103b8e001013c2f200035f6edb6d342103209847e1
:103b9e0004000028c1d140f21c420421012001f092
:103bae00bffe0c20eae744f61012c2f20002013307
:103bbe0040f22420135040f22823d258d36a986a38
:103bce00a062e3629c62d462cae747f25013c0f669
:043bde000043aee70b
:020000040000fa
:020000040c00ee
:023be20070472a
:020000040000fa
:020000040c00ee
:103be400f7b5002856d00838436801221e009643d2
:103bf40085192a680400934200d0ffde22686b68ae
:103c04001340012213420fd1200002f05ffe00286e
:103c140041d1280002f089fe0028efd001236a6810
:103c24009a43b618ad18e9e70123334363603000c3
:103c34002b6002f045fc019003f0fef822686b68eb
:103c4400134001221342dfd0174f019a3868796874
:103c540003f04af9012318420dd1019a01200021f1
:103c640003f04ef90b0010b13a6802433a6013b105
:103c74007b680b437b60019b0b4a0133db009b1881
:103c84001a005b68083a66602e60e360a260d46044
:103c9400e3689c60f7bd012223689343e41a6368d8
:0c3ca4009343f618b5e7c046084d002019
:020000040000fa
:020000040c00ee
:103cb00030b519b945f20011c0f225214cf20003cc
:103cc000c4f280431a680224a2431a6045f2645386
:103cd000c2f200030022da609a604cf20002c4f2e1
:103ce0008042d369002bfcd1002840d002684b08e9
:103cf00000249a422ad85200b1fbf2f14cf20003a0
:103d0000c4f280431a681b4c22401a601c68826807
:103d100045682a4322431a600139ff2900d9ff214f
:103d2000c9b24cf20003c4f2804319735a680721e8
:103d30008a435a605a68c1680a435a604cf20002ca
:103d4000c4f28042d369002bfcd101244cf2000361
:103d5000c4f280431a6802210a431a604cf200023e
:103d6000c4f28042d369002bfcd1200030bd002476
:083d7000ece7c046ffffffcfa6
:020000040000fa
:020000040c00ee
:103d780070b50400036bc56a9d4200da1d00a36a92
:103d8800ab421ed09c22a258002a53d0944219d08c
:103d9800a02160589c268251505019001e3189007c
:103da80044f61010c2f200008446614449688c420f
:103db80033d09c230022e250a56200212000fff7a7
:103dc8000bfa70bd44f61011c2f200011a001e323f
:103dd80092008c4662440020506001229a40886f0d
:103de8009043886748b944f61013c2f200030122d1
:103df80052425a670022da60dbe702f02afc44f6f6
:103e08001012c2f2000250671f2303401e339b00aa
:103e1800944663445b68d360cbe744f61011c2f262
:103e280000011e339b0063445a60cb68a342c0d193
:083e3800ca60bee7a562c4e701
:020000040000fa
:020000040c00ee
:103e4000f8b5002859d145f23023c2f200031b789f
:103e5000002b55d145f23023c2f20003013070220d
:103e60009854013298540132985418700e685e616b
:103e7000ca6a9a618a6ada6100221a624c69dc6055
:103e80008c699c605a609884012464429c6225304d
:103e90001a545a704868d8628d681d63cf685f6392
:103ea0000f699f63cf69df640f6a1f654f6a5f65a3
:103eb000096bd96564215a549a66da6644f6fc4364
:103ec000c2f20003ff321c705a709a70da70431c01
:103ed00001d06b1c09d145f23021c2f2000143f63a
:103ee0008900c0f60040f368984745f23023c2f2db
:103ef000000302221a740020f8bd01204042fbe7b3
:063f000001204042f8e739
:020000040000fa
:020000040c00ee
:103f060070b504002623c35c012523b97133c35c55
:103f16000025012b01d0280070bd70330022c25449
:103f2600c66dc36a01331fd0036b01331cd03578cd
:103f360035b10423f05e02f028fa3e23e054eae7a6
:103f460003f07af905001023f05e02f01efa3d2315
:103f5600e0541423f05e02f018fa3c23e0542800e3
:103f660003f06ef90125d6e7357835b10423f05e06
:103f760002f00bfa5b23e054cde703f05df9050090
:103f86007068431c0ad1b068431c0dd1f068431c0d
:103f960010d1280003f054f90125bce700b202f065
:103fa600f4f95823e054eee700b202f0eef9592393
:103fb600e054ebe700b202f0e8f95a23e054e8e7f0
:020000040000fa
:020000040c00ee
:023fc600704742
:020000040000fa
:020000040c00ee
:103fc800f0b583b0012745f2aa64c2f2000445f2b5
:103fd800a465c2f2000545f24c63c2f200030193e6
:103fe8008926f60520e045f2555322889a4239d0b1
:103ff80000f0e3fe019801f0e5fe00232380a033e2
:10400800f3581b0601d41d4b2380a023f3581b052e
:1040180004d4238845f2555213432380019801f0b4
:10402800f7fe142002f050f945f2a863c2f200032b
:104038001988002002f060fb002fd4d022884af6ad
:10404800aa239a42cfd10321280002f09aff6b7865
:104058000027002bccd0013bdfb26f707b1e9f4145
:10406800ffb2c5e70321280002f08bff6b78012718
:10407800b32bbdd801336b70bae7c046aaaaffffbd
:020000040000fa
:020000040c00ee
:1040880010b588293ad014dc81294ad003dc80296c
:1040980047d0002010bd822910d08429f9d1196891
:1040a8002ab30a1d1a6000228b5e0360db17436087
:1040b80010e0a0292ed00fdc9029ead11968072436
:1040c8006ab30919a1430a0008321a600b684c68e0
:1040d800036044600120dde7c02901d0f029d8d170
:1040e8001a68111d1960136803600023dfe70c1daf
:1040f8001c600b689bb203604260ebe7196822b151
:104108000a1d1a600023cb56cfe70c1d1c600b68f4
:10411800dbb2f0e71a68111d19601368c5e70731ab
:10412800d0e719681ab10a1d1a600b68bde70c1da3
:064138001c600b68dfe7cc
:020000040000fa
:020000040c00ee
:10413e00f0b5c64600b545f2a843c2f20003002210
:10414e00190030311a705a609a601a7310338b420c
:10415e00f8d145f27842c2f2000242f20003c4f2f4
:10416e0080435a6345f2d841c2f20001996348f286
:10417e008111c8f2811159613f260021995540f6ef
:10418e000011c0f28001596440f209484146118085
:10419e0045f2a841c2f20001012008704d2403250a
:1041ae001d55985540f6000cc0f2800c67465f64b2
:1041be0040f6090c6746178208741d5540f2020c32
:1041ce0067469f5540f60036c0f280065e6446464e
:1041de001684202288541d5540f602721a8004bca3
:0441ee009046f0bd4a
:020000040000fa
:020000040c00ee
:1041f20070b50400eff31086350072b643f25453e3
:10420200c5f2580302689a4228d1436b022b32d07e
:1042120044f61013c2f200039868636a032b32d18a
:1042220009b1236f0b6044f61013c2f2000340f28f
:1042320014229850200001f0faf886f31088e36ff8
:1042420013b1e16802209847636f13b12100012086
:104252009847eff3108572b6002406e040f2574209
:104262000421012001f062fb032485f3108801f090
:10427200befc200070bd40f257420421012001f033
:1042820055fb1624f1e78423e0500433e150863bca
:104292006363002300220821fef795fb0024e4e774
:020000040000fa
:020000040c00ee
:1042a20070b504002623c35c03b170bdc56dc36a3b
:1042b20001331ed0036b01331bd02b7833b13e2365
:1042c200c15c0423e85e02f043fd1ae002f0b6ff8f
:1042d20006003d23e15c1023e85e02f039fd3c2339
:1042e200e15c1423e85e02f033fd300002f0aaff25
:1042f20007e02b784bb15b23e15c0423e85e02f01c
:1043020027fd71230122e254cfe702f097ff060056
:104312006868431c09d1a868431c0cd1e868431c97
:104322000fd1300002f08effebe75823e15c00b2c0
:1043320002f00efdefe75923e15c00b202f008fd46
:0e434200ece75a23e15c00b202f002fde9e76d
:020000040000fa
:020000040c00ee
:10435000f0b54b6889b005930b6807009c4607933e
:10436000cb680c008e6810685168cd0f0493002d47
:1043700041d00b000200002150429941059b002bc7
:1043800007db022263469343079315b9079b5a073d
:1043900028d5731e07aa02920a22009301920b00ed
:1043a0000200200000f030ff15b9079b5a071dd509
:1043b00001382d2305b9023b049a135423695a1e70
:1043c000049b121a1918079b38000093330000f061
:1043d0002ffe7b68db0503d56368984200da18007e
:1043e00009b0f0bd1b07db0ff31ad3e71b07e5d5b8
:0e43f00001382023e0e7059b002bc2dac6e768
:020000040000fa
:020000040c00ee
:1043fe0070b545f20853c2f200031b7d002b4ad064
:10440e0045f20852c2f20002936851684ef2000261
:10441e00c4f28042127ed2071fd599421dd94ef2a8
:10442e000001c4f28041072645f20850c2f2000096
:10443e00012509e00268d25c8a62013344680a7e73
:10444e002a420ad09c4208d94a683240012af1d148
:10445e0002685c00a25a8a62efe745f20852c2f285
:10446e000002936052689a4215d845f20853c2f280
:10447e00000300221a755a604ef20002c4f2804206
:10448e0001211175db6833b145f20853c2f2000306
:08449e001869db68984770bd46
:020000040000fa
:020000040c00ee
:1044a60070b54468eff3108672b644f61013c2f284
:1044b60000039d686563e3697bb1ab422bd022693b
:1044c6000f2a30d022002c3200230b212800fef7c1
:1044d60078fa002086f3108870bde5610133236207
:1044e600002023690f2bf5d17d33eb585bb190216a
:1044f6006a5801326a501a6cd16be1632264d46344
:104506001c640020e6e790330122ea50043bec509d
:10451600e4632464dee7236aa26a934211d201337c
:1045260023620020d6e7aa6aa16b8a4200dda26355
:10453600aa6a996a8a42c5dd1a63e069fff719fc1f
:06454600c0e72320c6e7d8
:020000040000fa
:020000040c00ee
:10454c000023c4f202431a7801210a431a70002294
:10455c00c4f20242012153681942fcd10021c4f279
:10456c00024140f22223c0f22023cb6142f222030b
:10457c00c2f200030b6248f207030b6145f27013a1
:10458c00c2f2000300221a7201321a751f32022085
:10459c009854103a2a301a540c301a540c301a54bd
:1045ac000c301a540c301a540c301a540c301a5457
:1045bc000c301a540c301a540c301a540c301a5447
:1045cc000c301a54ac32a13898540b780222134395
:1045dc000b700022c4f20242022153681942fcd132
:0245ec00704716
:020000040000fa
:020000040c00ee
:1045ee0010b545f20853c2f200032c229b5c33b384
:1045fe0045f20853c2f20003da691b6a93421ed2d7
:10460e0045f20853c2f20003986a4ef20002c4f259
:10461e008042916a1b6a546807222240012a0fd0f9
:10462e0045f20852c2f200029269d154013345f2aa
:10463e000852c2f200021362d2699a4208d010bd2b
:10464e0045f20852c2f2000292695c00a152ede7f7
:10465e0045f20853c2f2000300222c215a54da61ab
:10466e004ef20002c4f28042583111755b6a002b83
:10467e00e5d045f20853c2f200035b6a9847dee7c5
:020000040000fa
:020000040c00ee
:10468e0010b582b00023019342f20003c4f28043be
:10469e003f215c5ce4b202225a540f315b5cdbb208
:1046ae000193019b02201a420ed042f20003c4f283
:1046be0080434c324c39995445f2a843c2f2000360
:1046ce00223a002199540138019bdb070ed542f2a4
:1046de000003c4f280434e220121995445f2a843af
:1046ee00c2f20003223a00219954022045f2a84357
:1046fe00c2f200035b6a33b145f2a843c2f2000373
:10470e00996a5b6a984742f20003c4f280433f22e3
:06471e009c5402b010bd26
:020000040000fa
:020000040c00ee
:104724004af20003c4f2804301221a604af20002f2
:10473400c4f28042d369002bfcd14af20003c4f2d4
:10474400804340f200125a604af20002c4f28042ee
:10475400d369002bfcd14af20003c4f280434ef229
:104764007362da6040f21642c0f210121a604af222
:104774000002c4f28042d369002bfcd14af2000348
:10478400c4f2804310225a834af20002c4f28042e7
:10479400d369002bfcd145f23853c2f20003002246
:1047a40021215a5401395a544af20003c4f2804375
:0647b4009b329a7570476c
:020000040000fa
:020000040c00ee
:1047ba0010b545f6c423c2f200031b68186800212d
:1047ca0002f066fc45f6a833c2f200031b681868bb
:1047da00002102f05dfcfef7e0fffcf75dff00f050
:1047ea0048fd01f0aef9fff798fffcf7ddfbfff794
:1047fa00a1fc02f0f0fc01f07efcfff7acf800f03f
:10480a001afbfff79efe02f05efc01f007fc01f0c6
:10481a00d7fc01f0bafb46f2a071c0f600410020b5
:10482a00fff709fb45f23c64c2f20004206046f23d
:10483a008841c0f600410020fef751fd6060fcf798
:04484a00b4fb10bdee
:020000040000fa
:020000040c00ee
:10484e0010b51400e0b140f286630022e254e26c2f
:10485e00216ca36c013b9b1a8b4212d3e36c013388
:10486e00e36440f28463e05cfcf7b6f820b940f2f2
:10487e007c62a3580133a35040f287630122e254b5
:10488e0010bd01390a40d3009b1ada00d21a520128
:10489e00e36b9c46624440f21063d0547433e35c85
:1048ae00002bdbd140f21a63d35c022bd6d843f631
:1048be008062c2f200029446634440f2746c634418
:1048ce0000221a708922d20540f218138021490263
:0448de00d150c3e70b
:020000040000fa
:020000040c00ee
:1048e20070b545f2ac63c2f200031b7803b170bd30
:1048f20045f2ac63c2f2000301251d7043f68064e9
:10490200c2f2000440f288620021200002f08dfb16
:104912004cf6cc43ccf6cc4340f28062a35040f23a
:104922008563ff22e25423005433e36325640821a4
:104932000020fdf757fe40f27863e05044f64f0145
:10494200c0f60041220001f0bffe002240f2846363
:10495200e25423003c344ef2c011c0f2e401ff20c5
:1049620019605d609a60da6018745a7414339c425c
:04497200f6d1bce7d7
:020000040000fa
:020000040c00ee
:1049760010b582b00023019342f20003c4f28043d3
:104986003f229c5ce4b2012199540f329b5cdbb25e
:104996000193019b02209b070cd542f20003c4f24f
:1049a60080430131995445f2a843c2f20003002224
:1049b6001a770138019bdb070dd542f20003c4f2da
:1049c60080434e220121995445f2a843c2f20003c6
:1049d60000221a77022045f2a843c2f200035b695f
:1049e60033b145f2a843c2f2000399695b6998475f
:1049f60042f20003c4f280433f229c5402b010bd31
:020000040000fa
:020000040c00ee
:104a060010b582b00021019142f20003c4f2804346
:104a16003f229c5ce4b299540f329b5cdbb201935b
:104a2600019b02209b070cd542f20003c4f280438f
:104a36000231995445f2a843c2f2000300221a73c8
:104a46000138019bdb070dd542f20003c4f2804317
:104a56004e220121995445f2a843c2f200030022d6
:104a66001a73022045f2a843c2f200035b6833b111
:104a760045f2a843c2f2000399685b68984742f280
:0e4a86000003c4f280433f229c5402b010bdd6
:020000040000fa
:020000040c00ee
:104a940070b5002840d045f20853c2f200031a7dd5
:104aa4000023babb45f20853c2f2000318605960f0
:104ab40001321a755c684ef20003c4f280431b7e17
:104ac400db0718d5d4b100234ef20001c4f28041b3
:104ad4000726012507e0c25c8a6201330a7e2a4266
:104ae4000bd09c420ad04a683240012af3d15a00c2
:104af400825a8a62f1e7002400e01c0045f2085360
:104b0400c2f200039c604ef20003c4f2804301220f
:0c4b14009a750123180070bd0023fbe718
:020000040000fa
:020000040c00ee
:104b2000f0b595b00c0045f28c63c2f200031d682d
:104b300015b3c3785b0621d501a90368db00db0848
:104b4000019347f22016c0f6004683791a07120f28
:104b5000b25c44268a55878802368f539b06db0f4a
:104b600002330e00482173540100083102a802f0fc
:104b700053fa210001a8a84715b0f0bd01a90368a8
:104b8000db005b0d019347f22016c0f600468379e7
:104b90001a07120fb25c44268a55878802368f5353
:0a4ba0009b06db0f02368b55dee7a3
:020000040000fa
:020000040c00ee
:024baa00704752
:020000040000fa
:020000040c00ee
:104bac0053756363657373004661696c65640000db
:104bbc002054582025730d0a000000001c4c000cda
:104bcc00244c000c2c4c000c205258205b25735d9f
:104bdc002049443a30782558204c656e3a2564209b
:104bec00446174613a000000202530325800000006
:104bfc000d0000001b5b316d1b5b33336d5377690c
:104c0c007463682053746174653a2025640d0a003e
:104c1c004649464f300000004649464f31000000df
:084c2c00427566666572000026
:020000040000fa
:020000040c00ee
:104c340070b5060001f0a2f8072303406bb1072bff
:104c44000bd045f28863c2f20003186045f2ad63ed
:104c5400c2f2000305221a7070bdf2009219d2004c
:104c640045f2e434c2f200040021200002f0dcf931
:104c7400220031000120fef7abfca8b16eb1002484
:104c840045f2e435c2f2000501212800fff746ff92
:104c940048350134e4b2a642f6d145f2ad63c2f21e
:104ca400000304221a70d7e745f2ad63c2f2000391
:064cb40005221a70d0e792
:020000040000fa
:020000040c00ee
:104cba0070b5060001f05ff8072303406bb1072bbc
:104cca000bd045f28863c2f20003186045f2ad6367
:104cda00c2f2000305221a7070bdf2009219d200c6
:104cea0045f29c34c2f200040021200002f099f936
:104cfa00220031000020fef768fca8b16eb1002442
:104d0a0045f29c35c2f2000500212800fff703ff97
:104d1a0048350134e4b2a642f6d145f2ad63c2f297
:104d2a00000304221a70d7e745f2ad63c2f200030a
:064d3a0005221a70d0e70b
:020000040000fa
:020000040c00ee
:104d4000f0b51600050002278369426987b0029317
:104d5000d31a03939b1904910596019302ac3a0070
:104d60002100286801f048ff019b984208d1ab68f8
:104d7000ea68ab619a18aa626b61300007b0f0bdb7
:104d800000280cda102200236968ab620a43ab6189
:104d90006b616a60022f12d06368f61aede7019b1f
:104da0001b1a01936368984202d9c01a0834013f64
:104db00023681b1823606368181a6060cfe71e0021
:024dc000dbe72f
:020000040000fa
:020000040c00ee
:104dc20010b545f22462c2f20002538812889b1a7f
:104dd2001bb2132b06dc1a00133222db002b25dc5c
:104de20028db10bd142001f010fe42f20003c4f2d1
:104df20081431b6bdb03f4d445f22462c2f200024e
:104e0200138851684b43b421b3fbf1f392689b18aa
:104e12004ff6ff72134042f20002c4f2814213675e
:104e2200dfe71420404201f0f0fddee7012001f04f
:0e4e3200ecfddae70120404201f0e7fdd5e794
:020000040000fa
:020000040c00ee
:104e400047f28413c0f600231a6848f20003c4f244
:104e500081439a6304221a6012061a6140f60542e1
:104e6000c0f201621a62802252021a63186980211c
:104e700049030143196119690a431a611a68022139
:104e80000a431a6048f20002c4f28142e6315358e4
:104e9000002bfcd148f20002c4f2814240f204101f
:104ea000012113581942fcd048f20002c4f2814299
:0e4eb00040f20410802113581942fcd07047c4
:020000040000fa
:020000040c00ee
:104ebe0030b5eff3108172b644f61013c2f2000350
:104ece009b683bb19c229a5822b15a6c12b1013a9e
:104ede00bab15a6444f61012c2f20002d2689a4273
:104eee000cd062b64ef60453cef200038022520569
:104efe00186802431a60bff35f8f72b681f3108891
:104f0e0030bd9a6c5a649c2298588342e2d044f683
:104f1e001014c2f200049a6a1e329200a446624431
:0c4f2e005060e2689a42dcd1e060dae7f3
:020000040000fa
:020000040c00ee
:104f3a00f8b5846a05000f00160054b1ab6a6a69b5
:104f4a009b1ab3420cd2320039002800fff7f3fe55
:104f5a0005e001f0baff03002000002beed0f8bdf7
:104f6a00002ef0d02b0034331b785bb2002b1bdbf6
:104f7a003400dbb2621eb95c994212d122003900b8
:104f8a002800fff7d8fea042e9d33f19341b2200bc
:104f9a003900686902f03bf86b6930001c196c61d2
:0c4faa00dde71400002ae5d13400f0e738
:020000040000fa
:020000040c00ee
:104fb60010b544f61013c2f2000343f22052c5f2b4
:104fc60058021b68934200d010bdeff3108072b6f2
:104fd60044f61013c2f20003fc215a5801325a500b
:104fe60040f20c129b5844f2402cc0f20f0c634462
:104ff6004cf6ff12c3f69a32934208d944f61013c0
:10500600c2f200030c315a5801325a50002344f6ba
:105016001012c2f2000240f20c11535080f31088b5
